:040800000CEF04F005
:10080800FACF22F1FBCF23F1E9CF24F195ED0CF0DB
:1008180000EE1FF0720EF66E100EF76E10EE02F07C
:1008280025EC04F000EE00F010EE1FF01EEC04F0D2
:100838003AEF08F0EE6AE550E150FCE1E250FAE1E7
:1008480012000900F5CFEEFFE550E150FAE1E25061
:04085800F8E11200B1
:1010000000506C6179657220313A20202020202028
:1010100020506C6179657220323A202020202020F7
:1010200020202020507265737320205242342020EB
:10103000202020546F20626567696E2067616D65AE
:101040002020506C6179657220312057696E7321C0
:101050002020506C6179657220322057696E7321AF
:10106000202052423420746F205265737461727470
:10107000200001009368000E946E000E956E000E25
:10108000826E92680F0E966E01010C6F850EC06E17
:1010900001010C5101010C6F070EC16E01010C51D1
:1010A000010EC26E87EC0EF001010C6F000E010103
:1010B0000101156F01010C5101010D6F000E0101BD
:1010C0000101146F01010D5145EC0EF0000E0101FC
:1010D0000101006F000E0101016F010101010151C9
:1010E000800A800F100ED8B4005DD8A001D001D0C6
:1010F00001D021D0210E010101010025F66EF76A11
:10110000100EF722F86A000EF82208000101F5CF50
:1011100016F165EC0FF001010101004B012B0101FB
:1011200001010151800A800F100ED8B4005DD8A0D3
:1011300001D001D0DFD701010C6F000E01010101C8
:10114000156F01010C5101010D6F010E010101012B
:10115000146F01010D5145EC0EF0000E010101016B
:10116000026F000E0101036F010101010351800AAA
:10117000800F100ED8B4025DD8A001D001D001D0EC
:1011800021D0310E010101010225F66EF76A100E21
:10119000F722F86A000EF82208000101F5CF16F1D7
:1011A00065EC0FF001010101024B032B010101016C
:1011B0000351800A800F100ED8B4025DD8A001D070
:1011C00001D0DFD700D081A801D001D0FCD7D59ABB
:1011D00001010C6F880ED56E01010C51D58EF28A7B
:1011E000F184F28CF28E01010C6F000E01010101FD
:1011F0000E6F01010C5106EC0FF00EC116F10FC17C
:1012000017F1D0EC0FF084EC0BF001010C6F0A0E1B
:1012100001010101156F01010C5101010D6F000E5B
:1012200001010101146F01010D5145EC0EF00BC0DD
:101230000EF10CC00FF121EC0CF001010C6F0A0E45
:1012400001010101156F01010C5101010D6F010E2A
:1012500001010101146F01010D5145EC0EF009C0AF
:101260000EF10AC00FF121EC0CF0E80E01010101B2
:10127000186F030E0101196FC7EC0EF046D081A064
:1012800001D001D00DD0010E1D6E000E1E6E010E9C
:10129000010101010E6F000E01010F6FDFEC0AF07A
:1012A00081AE01D001D00DD0010E1B6E000E1C6E60
:1012B000020E010101010E6F000E01010F6FDFEC44
:1012C0000AF000040110D8A401D001D00CD01E50A7
:1012D0001D10D8A401D001D006D0FD0E0B240B6E3A
:1012E000020E0C200C6E00040110D8A401D001D015
:1012F0000CD01C501B10D8A401D001D006D0FD0E7C
:101300000924096E020E0A200A6E1DC00CF11EC0CF
:101310000DF11B5001010C271C5001010D2301018F
:101320000C51020A0D11D8A401D001D0A8D7000E8B
:101330001D6E000E1E6E000E1B6E000E1C6E064A09
:10134000072A33D12CD109500B5C0A500C58D8B065
:1013500001D001D08ED001010C6F000E01010101FE
:10136000156F01010C5101010D6F000E010101010A
:10137000146F01010D5145EC0EF0000E0101010149
:10138000046F000E0101056F010101010551800A82
:10139000800F100ED8B4045DD8A001D001D001D0C8
:1013A00021D0410E010101010425F66EF76A100EED
:1013B000F722F86A000EF82208000101F5CF16F1B5
:1013C00065EC0FF001010101044B052B0101010146
:1013D0000551800A800F100ED8B4045DD8A001D04A
:1013E00001D0DFD701010C6F000E01010101156F63
:1013F00001010C5101010D6F010E01010101146F7A
:1014000001010D5145EC0EF0000E01010101066FC6
:10141000000E0101076F010101010751800A800FD1
:10142000100ED8B4065DD8A001D001D001D021D0D3
:10143000610E010101010625F66EF76A100EF72212
:10144000F86A000EF82208000101F5CF16F165ECEC
:101450000FF001010101064B072B010101010751AA
:10146000800A800F100ED8B4065DD8A001D001D03C
:10147000DFD70B50095C0C500A58D8B001D001D00E
:101480008ED001010C6F000E01010101156F0101E9
:101490000C5101010D6F000E01010101146F0101DA
:1014A0000D5145EC0EF0000E01010101086F000E18
:1014B0000101096F010101010951800A800F100E1D
:1014C000D8B4085DD8A001D001D001D021D0510EF0
:1014D000010101010825F66EF76A100EF722F86A7D
:1014E000000EF82208000101F5CF16F165EC0FF0AF
:1014F00001010101084B092B010101010951800A79
:10150000800F100ED8B4085DD8A001D001D0DFD76D
:1015100001010C6F000E01010101156F01010C5159
:1015200001010D6F010E01010101146F01010D5147
:1015300045EC0EF0000E010101010A6F000E0101E1
:101540000B6F010101010B51800A800F100ED8B4FE
:101550000A5DD8A001D001D001D021D0610E0101D7
:1015600001010A25F66EF76A100EF722F86A000EDE
:10157000F82208000101F5CF16F165EC0FF001012A
:1015800001010A4B0B2B010101010B51800A800F55
:10159000100ED8B40A5DD8A001D001D0DFD781A841
:1015A00001D001D0D0D684EC0BF00650030A07100E
:1015B000D8B401D001D0C6D628D60CEF04F0010172
:1015C00001010E050F11D8A401D001D04AD00D5051
:1015D000195C01010101166F0E501A580101176FB5
:1015E00083EC0FF016C110F117C111F117500F5C09
:1015F00001010101166F185010580101176F83EC9B
:101600000FF0010101011651010110250101126FB6
:10161000010101011751010111210101136F1F5037
:10162000115C01010101166F205012580101176F62
:1016300083EC0FF001010101165101011225010196
:10164000146F010101011751010113210101156FEF
:101650000B50010114250B6E0C50010115210C6E6D
:1016600052D0010101010E51020A0F11D8A401D07C
:1016700001D049D00D50195C01010101166F0E50C7
:101680001A580101176F83EC0FF016C110F117C142
:1016900011F117500F5C01010101166F185010581D
:1016A0000101176F83EC0FF00101010116510101D7
:1016B00010250101126F01010101175101011121D2
:1016C0000101136F1F50115C01010101166F2050C1
:1016D00012580101176F83EC0FF00101010116513F
:1016E000010112250101146F0101010117510101CE
:1016F00013210101156F095001011425096E0A50CB
:10170000010115210A6E1200BAEC0FF00101126FEF
:10171000000E01010101156F010112510101136F4A
:10172000000E01010101146F0101135145EC0EF08F
:10173000000E010101010E6F000E01010F6F01018A
:1017400001010F51800A800F100ED8B40E5DD8A091
:1017500001D001D001D021D0010E010101010E25DF
:10176000F66EF76A100EF722F86A000EF8220800EB
:101770000101F5CF16F165EC0FF0010101010E4BEF
:101780000F2B010101010F51800A800F100ED8B4F8
:101790000E5DD8A001D001D0DFD70101126F000E7D
:1017A00001010101156F010112510101136F010EB9
:1017B00001010101146F0101135145EC0EF0000EFF
:1017C00001010101106F000E0101116F0101010102
:1017D0001151800A800F100ED8B4105DD8A001D02E
:1017E00001D001D021D0110E010101011025F66EAA
:1017F000F76A100EF722F86A000EF82208000101BD
:10180000F5CF16F165EC0FF001010101104B112B22
:10181000010101011151800A800F100ED8B4105D32
:10182000D8A001D001D0DFD7000E066E000E076EE3
:10183000000E0B6E000E0C6E000E096E000E0A6E8E
:1018400012000101156F000E01010101106F01016D
:101850001551030E01010101106501D001D001D025
:1018600036D00101110E010101011025E96EEA6A6D
:101870000101010EEA220A0E01010101186F000E9A
:101880000101196F0EC116F10FC117F1B6EC0DF081
:10189000010101011651EF6E0A0E01010101186FDD
:1018A000000E0101196F0EC116F10FC117F108ECFE
:1018B0000DF016C10EF117C10FF101010101102B3E
:1018C000030E01010101106501D001D0CAD7010149
:1018D000156F040E01010101106F01011551010185
:1018E0000101106701D001D001D01ED010C115F147
:1018F000FF0E010115270101110E01011525E96EE9
:10190000EA6A0101010EEA22EF50300F01010101E4
:10191000166F65EC0FF001010101100701010101D3
:10192000106701D001D0E2D712000600EACF25F1FE
:10193000E1CF26F1E2CF27F1D9CF28F1DACF29F193
:10194000F3CF2AF1F4CF2BF1F6CF2CF1F7CF2DF115
:10195000F8CF2EF1F2A401D001D03FD0EC0ED66E1C
:10196000FA0ED76E04280510D8A401D001D014D0E7
:10197000000E046E000E056E828082828284024A0E
:10198000032A02500A0A0310D8A401D001D004D0BF
:10199000000E026E000E036E0E50051802E10D508F
:1019A0000418D8A401D001D001D082901850051895
:1019B00002E117500418D8A401D001D001D08292BE
:1019C0002050051802E11F500418D8A401D001D0FE
:1019D00001D08294044A052AF2942EC1F8FF2DC149
:1019E000F7FF2CC1F6FF2BC1F4FF2AC1F3FF29C179
:1019F000DAFF28C1D9FF27C1E2FF26C1E1FF25C1D7
:101A0000EAFF24C1E9FF23C1FBFF22C1FAFF110055
:101A1000000E010101011B6F000E01011C6F01018D
:101A2000010119511811D8B401D001D047D00101DA
:101A30001D6F010E010101011A6F01011D5109D035
:101A40000101D89001011837010119370101010185
:101A50001A2B0101010119AF01D001D0F1D7010109
:101A6000D89001011B3701011C37010101011851F8
:101A700001010101165D010101011951010101017D
:101A80001759D8A001D001D00FD001010101185180
:101A900001010101165F010101011951010101015B
:101AA000175B010101011B810101D890010119336C
:101AB00001011833010101011A2FD1D71BC116F101
:101AC0001CC117F100D01200000E010101011E6FB0
:101AD000000E01011F6F000E0101206F000E0101B9
:101AE000216F0101010116A101D001D018D001011F
:101AF00001011A51010101011E27010101011B51C0
:101B0000010101011F23010101011C51010101011A
:101B10002023010101011D510101010121230101C6
:101B2000D89001011A3701011B3701011C3701014F
:101B30001D370101D890010119330101183301014A
:101B4000173301011633010119511611171118111C
:101B5000D8A401D001D0C5D71EC116F11FC117F1FD
:101B600020C118F121C119F100D0120001010101B9
:101B700019511811D8B401D001D03ED001011B6F0A
:101B8000010E010101011A6F01011B5109D0010170
:101B9000D8900101183701011937010101011A2BF1
:101BA0000101010119AF01D001D0F1D701010101FB
:101BB000185101010101165D0101010119510101D5
:101BC00001011759D8A001D001D00CD001010101A9
:101BD000185101010101165F0101010119510101B3
:101BE0000101175B0101D89001011933010118337C
:101BF000010101011A2FDAD716C116F117C117F129
:101C000000D01200086601D001D009D0010E0101F8
:101C10000101166F000E0101176FD0EC0FF06D0E71
:101C2000010101011A6F4E0E01011B6FC60E010169
:101C30001C6F410E01011D6F13C016F114C017F186
:101C400015C018F116C019F164EC0DF0390E010140
:101C500001011625136E300E010101011721146ECA
:101C6000000E010101011821156E000E0101010194
:101C70001921166EFF0E151401010101146F7F0E5C
:101C800016140101156F00D0120001010101146743
:101C900001D001D009D0010101011551800F0101CE
:101CA0000101166F3EEC0FF0010101011405D8A4EB
:101CB00001D001D009D0010101011551C00F01016E
:101CC0000101166F3EEC0FF0010101011451020AEF
:101CD000D8A401D001D009D0010101011551940F00
:101CE00001010101166F3EEC0FF0010101011451D9
:101CF000030AD8A401D001D009D001010101155176
:101D0000D40F01010101166F3EEC0FF01200010E1D
:101D1000956E839201010E6F330E01010101166F62
:101D200001010E513EEC0FF001010E6F320E010168
:101D30000101166F01010E513EEC0FF001010E6F13
:101D4000280E01010101166F01010E513EEC0FF04A
:101D500001010E6F0E0E01010101166F01010E51FE
:101D60003EEC0FF001010E6F010E01010101166F33
:101D700001010E513EEC0FF001010E6F060E010144
:101D80000101166F01010E513EEC0FF01200000E22
:101D9000010101011A6F000E01011B6F26D0000E18
:101DA000010101011C6F000E01011D6F6A0E01018E
:101DB00001011C5D020E01011D59D8A001D001D006
:101DC00001D00FD0010101011C4B1D2B6A0E010136
:101DD00001011C5D020E01011D59D8A001D001D0E6
:101DE000F1D7010101011A4B1B2B0101010118510F
:101DF000010101011A5D01010101195101010101F6
:101E00001B59D8A001D001D0CAD71200010101018D
:101E10000E510F0B010101010E6F0EC111F1D8908F
:101E200001011137D8900101113701011129C26E4A
:101E30000101116F000E01010101106F010111512B
:101E4000130E01010101106501D001D001D00AD0AB
:101E500001010101102B130E01010101106501D0D8
:101E600001D0F6D7C28200D0C2B201D001D0FCD7D7
:101E7000C3CF0EF1C4CF0FF100D01200839416C16E
:101E800017F1F00E0101171783500F0B0101171105
:101E9000836EDFEC0FF016C117F10101173BF00E56
:101EA0001717F00E0101171783500F0B01011711BF
:101EB000836EDFEC0FF00A0E01010101186F000EB6
:101EC0000101196FC7EC0EF01200838416C117F1DF
:101ED000F00E0101171783500F0B01011711836ECC
:101EE000DFEC0FF016C117F10101173BF00E1717C9
:101EF000F00E0101171783500F0B01011711836EAC
:101F0000DFEC0FF012000101010117AF01D001D089
:101F100010D0010116C118F1010117C119F1010119
:101F2000181F191F184B192B18C116F119C117F1D9
:101F300005D016C116F117C117F100D0120001012A
:101F4000196F000E01010101186F01011951130EE3
:101F500001010101186501D001D001D00AD00101B1
:101F60000101182B130E01010101186501D001D0E8
:101F7000F6D7120002EC0EF0010101011451196EA6
:101F80001A6A02EC0EF00101010114510F6E106A81
:101F900002EC0EF0010101011451116E126A1200DF
:101FA000010116C113F0010117C114F0156A166A78
:101FB0000101186F010E086E01011851120083967D
:101FC0009FEC0FF083869FEC0FF083969FEC0FF051
:021FD0001200FD
:00000001FF
